:020000040800F2
:1000000000500020592C00087108000879080008E9
:100010008108000889080008910800080000000015
:100020000000000000000000000000009908000827
:10003000A508000800000000B1080008BD0800087D
:10004000A12C0008A12C0008A12C0008A12C00085C
:10005000A12C0008A12C0008A12C0008A12C00084C
:10006000A12C0008A12C0008A12C0008A12C00083C
:10007000A12C0008A12C0008A12C0008A12C00082C
:10008000A12C0008A12C0008A12C0008A12C00081C
:10009000A12C0008A12C0008A12C0008A12C00080C
:1000A000A12C0008A12C0008A12C0008A12C0008FC
:1000B000A12C0008A12C0008C9080008A12C0008E8
:1000C000A12C0008A12C0008A12C0008A12C0008DC
:1000D000A12C0008A12C0008A12C0008A12C0008CC
:1000E000A12C0008A12C0008A12C00080000000091
:1000F0000000000000000000000000000000000000
:0C01000000000000000000005FF808F1A3
:10010C000348044B834202D0034B03B1184770479A
:10011C000C0000200C000020000000000548064BDD
:10012C001B1AD90F01EBA301491002D0034B03B1E9
:10013C00184770470C0000200C0000200000000045
:10014C0010B5064C237843B9FFF7DAFF044B13B113
:10015C000448AFF300800123237010BD0C00002075
:10016C0000000000A42C000808B5054B1BB1054984
:10017C000548AFF30080BDE80840FFF7CFBF00BFD4
:10018C000000000010000020A42C000803460244CC
:10019C00934200D1704703F8011BF9E770B50026B4
:1001AC000C4D0D4C641BA410A64209D102F074FD39
:1001BC0000260A4D0A4C641BA410A64205D170BD42
:1001CC0055F8043B98470136EEE755F8043B984741
:1001DC000136F2E7E82C0008E82C0008E82C0008AF
:1001EC00EC2C000880B58CB000AF00F077FB00F071
:1001FC000FF800F06FF900F05BF800F097F800F0E2
:10020C00CBF800F03DF93B46184600F0A1FCFAE7AC
:10021C0080B594B000AF07F12803282200211846BE
:10022C00FFF7B4FF07F1140300221A605A609A60BA
:10023C00DA601A613B1D00221A605A609A60DA601B
:10024C000223BB620123BB631023FB6300237B648B
:10025C0007F12803184601F065F90346002B01D07D
:10026C0000F0CAF90F237B610023BB610023FB6103
:10027C0000233B6200237B6207F114030021184624
:10028C0001F0D2FB0346002B01D000F0B5F902239C
:10029C007B600023FB603B1D184601F053FD0346B9
:1002AC00002B01D000F0A8F900BF5037BD4680BD2F
:1002BC0080B584B000AF3B1D00221A605A609A6072
:1002CC00184B194A1A60174B00229A60154B0022E2
:1002DC001A73144B00221A75124B4FF46022DA6118
:1002EC00104B00225A600F4B01221A610D4800F08E
:1002FC0057FB0346002B01D000F07EF900237B60F6
:10030C000123BB600023FB603B1D1946054800F030
:10031C002BFC0346002B01D000F06EF900BF103708
:10032C00BD4680BD280000200024014080B500AFF0
:10033C00174B184A1A60164B10225A60144B0022A5
:10034C009A60134B0022DA60114B4FF4E0221A61D1
:10035C000F4B4FF440125A610D4B00221A760C4B86
:10036C0000225A760A4B00229A76094B0022DA7642
:10037C00074B00221A77064B00225A77044800F0EC
:10038C002CFD0346002B01D000F036F900BF80BDD8
:10039C00580000200064004080B58EB000AF07F11B
:1003AC00280300221A605A609A60DA6007F1200371
:1003BC0000221A605A603B1D00221A605A609A6033
:1003CC00DA601A615A619A612B4B2C4A1A602A4BDB
:1003DC0041F63F725A60284B00229A60264B01224C
:1003EC00DA60254B00221A61234B00229A612248C5
:1003FC0001F05EFD0346002B01D000F0FDF84FF438
:10040C008053BB6207F1280319461B4801F05CFFBF
:10041C000346002B01D000F0EFF8174801F097FDD0
:10042C000346002B01D000F0E7F800233B620023C9
:10043C007B6207F1200319460F4802F0B9FA034614
:10044C00002B01D000F0D8F800237B600023BB60A8
:10045C000023FB6000237B613B1D002219460648EC
:10046C0001F0D6FE0346002B01D000F0C5F800BF0A
:10047C003837BD4680BD00BF80000020000800401A
:10048C0080B500AF114B124A1A60104B4FF4E13299
:10049C005A600E4B00229A600C4B0022DA600B4B18
:1004AC0000221A61094B0C225A61084B00229A61F6
:1004BC00064B0022DA61054802F0EAFA0346002BEB
:1004CC0001D000F099F800BF80BD00BFC80000202B
:1004DC000038014080B588B000AF07F1100300224E
:1004EC001A605A609A60DA603F4B9B693E4A43F04F
:1004FC00100393613C4B9B6903F01003FB60FB689A
:10050C00394B9B69384A43F004039361364B9B6922
:10051C0003F00403BB60BB68334B9B69324A43F066
:10052C0008039361304B9B6903F008037B607B6885
:10053C0000224FF460412D4800F0DCFF002240F611
:10054C000E112B4800F0D6FF00224FF23001294843
:10055C0000F0D0FF4FF460433B6101237B6100232B
:10056C00BB610223FB6107F1100319461F4800F021
:10057C003DFE40F60E133B6101237B610023BB6102
:10058C000223FB6107F110031946194800F02EFEF7
:10059C00F0233B6100237B610023BB6107F1100357
:1005AC001946134800F022FE40F603433B6100233A
:1005BC007B610023BB6107F1100319460D4800F065
:1005CC0015FE4FF230033B6101237B610023BB61BD
:1005DC000223FB6107F110031946064800F006FEE2
:1005EC0000BF2037BD4680BD001002400010014006
:1005FC0000080140000C014080B400AF72B600BF8F
:10060C0000BFFDE780B483B000AF0E4B9B690D4A71
:10061C0043F0010393610B4B9B6903F001037B6077
:10062C007B68084BDB69074A43F08053D361054B69
:10063C00DB6903F080533B603B6800BF0C37BD4661
:10064C0080BC70470010024080B588B000AF786065
:10065C0007F1100300221A605A609A60DA607B6816
:10066C001B68144A934221D1134B9B69124A43F4E1
:10067C0000739361104B9B6903F40073FB60FB6880
:10068C000D4B9B690C4A43F0040393610A4B9B6925
:10069C0003F00403BB60BB6801233B6103237B6154
:1006AC0007F110031946054800F0A0FD00BF2037E4
:1006BC00BD4680BD002401400010024000080140EE
:1006CC0080B58AB000AF786007F1140300221A607D
:1006DC005A609A60DA607B681B68254A934243D162
:1006EC00244BDB69234A43F00073D361214BDB6954
:1006FC0003F000733B613B691E4B9B691D4A43F041
:10070C00080393611B4B9B6903F00803FB60FB68B8
:10071C004FF480737B610023BB610023FB6107F105
:10072C0014031946144800F061FD4FF400737B610B
:10073C000223BB6103233B6207F1140319460E48E5
:10074C0000F054FD0D4B5B687B627B6A23F4C04365
:10075C007B627B6A43F0E0637B627B6A43F4804399
:10076C007B62064A7B6A536000BF2837BD4680BD5A
:10077C000064004000100240000C014000000140E9
:10078C0080B584B000AF78607B681B680D4A9342DB
:10079C0013D10D4BDB690C4A43F00403D3610A4BB4
:1007AC00DB6903F00403FB60FB68002200211E20C0
:1007BC0000F0E5FC1E2000F0FEFC00BF1037BD462B
:1007CC0080BD00BF000800400010024080B588B01A
:1007DC0000AF786007F1100300221A605A609A602B
:1007EC00DA607B681B681C4A934231D11B4B9B69B6
:1007FC001A4A43F480439361184B9B6903F480437A
:10080C00FB60FB68154B9B69144A43F0040393612E
:10081C00124B9B6903F00403BB60BB684FF400737D
:10082C003B6102237B610323FB6107F11003194633
:10083C000B4800F0DBFC4FF480633B6100237B61D1
:10084C000023BB6107F110031946054800F0CEFCEC
:10085C0000BF2037BD4680BD00380140001002406B
:10086C000008014080B400AF00BFFDE780B400AFCA
:10087C0000BFFDE780B400AF00BFFDE780B400AF60
:10088C0000BFFDE780B400AF00BFFDE780B400AF50
:10089C0000BFBD4680BC704780B400AF00BFBD46F2
:1008AC0080BC704780B400AF00BFBD4680BC7047B1
:1008BC0080B500AF00F058F800BF80BD80B500AF28
:1008CC00024801F09CFB00BF80BD00BF80000020EF
:1008DC0080B400AF00BFBD4680BC704780B500AF90
:1008EC00084B1B68074A43F010031360032000F009
:1008FC003BFC0F2000F008F8FFF784FE002318469D
:10090C0080BD00BF0020024080B582B000AF78608F
:10091C00124B1A68124B1B7819464FF47A73B3FBBF
:10092C00F1F3B2FBF3F3184600F053FC0346002B33
:10093C0001D001230EE07B680F2B0AD800227968C6
:10094C004FF0FF3000F01BFC064A7B68136000235D
:10095C0000E0012318460837BD4680BD000000208A
:10096C00080000200400002080B400AF054B1B7869
:10097C001A46054B1B681344034A136000BFBD465F
:10098C0080BC7047080000201001002080B400AF2C
:10099C00024B1B681846BD4680BC704710010020F6
:1009AC0080B586B000AF78600023FB7500233B61F7
:1009BC000023BB600023FB607B68002B01D101236B
:1009CC00BEE07B689B68002B7B689B6A002B09D17F
:1009DC007B680022DA627B68002283F82420786826
:1009EC00FFF732FE786800F0B7F90346FB757B68B9
:1009FC009B6A03F01003002B40F09980FB7D002BC9
:100A0C0040F095807B689B6A23F4885323F00203A3
:100A1C0043F002027B689A627B685A687B68DB69E8
:100A2C001A437B681B7B5B001343BA681343BB60A0
:100A3C007B689B68B3F5807F03D07B689B68012B38
:100A4C0002D14FF4807300E000233A6913433B61F9
:100A5C007B681B7D012B19D17B681B7B002B09D17B
:100A6C007B689B69013B5A033B69134343F4006366
:100A7C003B610BE07B689B6A43F020027B689A62C7
:100A8C007B68DB6A43F001027B68DA627B681B6877
:100A9C005B6823F469417B681B683A690A435A60B6
:100AAC007B681B689A68284B13407A681268B9688F
:100ABC000B4393607B689B68B3F5807F03D07B68A6
:100ACC009B68012B04D17B681B69013B1B05FB60F8
:100ADC007B681B68DB6A23F470017B681B68FA680F
:100AEC000A43DA627B681B689A68184B1340BA6831
:100AFC009A420BD17B680022DA627B689B6A23F0F6
:100B0C00030343F001027B689A6218E07B689B6ADE
:100B1C0023F0120343F010027B689A627B68DB6A55
:100B2C0043F001027B68DA620123FB7507E07B6806
:100B3C009B6A43F010027B689A620123FB75FB7D74
:100B4C0018461837BD4680BDFDF7E1FFFE0E1FFFAE
:100B5C0080B483B000AF78607B681B68DB6C184690
:100B6C000C37BD4680BC704780B485B000AF786050
:100B7C0039600023FB730023BB607B6893F824303F
:100B8C00012B01D10223DCE07B68012283F82420B5
:100B9C003B685B68062B1CD87B681B68596B3B68F1
:100BAC005A6813469B001344053B1F2202FA03F3B9
:100BBC00DB4319403B6818683B685A6813469B0036
:100BCC001344053B00FA03F27B681B680A435A6323
:100BDC003CE03B685B680C2B1CD87B681B68196B72
:100BEC003B685A6813469B001344233B1F2202FAAE
:100BFC0003F3DB4319403B6818683B685A6813469B
:100C0C009B001344233B00FA03F27B681B680A43E6
:100C1C001A631BE07B681B68D96A3B685A681346E9
:100C2C009B001344413B1F2202FA03F3DB431940A0
:100C3C003B6818683B685A6813469B001344413B59
:100C4C0000FA03F27B681B680A43DA623B681B6894
:100C5C00092B1CD97B681B68D9683B681A6813463A
:100C6C005B0013441E3B072202FA03F3DB431940DB
:100C7C003B6898683B681A6813465B0013441E3B3C
:100C8C0000FA03F27B681B680A43DA6019E07B68A0
:100C9C001B6819693B681A6813465B0013440722EA
:100CAC0002FA03F3DB4319403B6898683B681A6807
:100CBC0013465B00134400FA03F27B681B680A437B
:100CCC001A613B681B68102B03D03B681B68112B07
:100CDC0032D17B681B681D4A934225D17B681B6807
:100CEC009B6803F40003002B26D17B681B689A6871
:100CFC007B681B6842F400029A603B681B68102BEF
:100D0C001AD1134B1B68134AA2FB03239A0C1346EC
:100D1C009B0013445B00BB6002E0BB68013BBB6003
:100D2C00BB68002BF9D107E07B689B6A43F020027B
:100D3C007B689A620123FB737B68002283F8242072
:100D4C00FB7B18461437BD4680BC7047002401401D
:100D5C000000002083DE1B4380B584B000AF7860B8
:100D6C000023FB607B681B689B6803F00103012B6D
:100D7C002ED17B681B689A687B681B6822F0010285
:100D8C009A60FFF703FEF8601BE0FFF7FFFD0246D9
:100D9C00FB68D31A022B14D97B681B689B6803F081
:100DAC000103012B0DD17B689B6A43F010027B6819
:100DBC009A627B68DB6A43F001027B68DA6201238A
:100DCC0007E07B681B689B6803F00103012BDCD0F8
:100DDC00002318461037BD4680BD80B584B000AFE7
:100DEC0078607B68002B01D10123EDE07B6893F8E0
:100DFC002030DBB2002B02D17868FFF761FC7B68F6
:100E0C001B681A687B681B6842F001021A60FFF7C6
:100E1C00BDFDF86012E0FFF7B9FD0246FB68D31A7E
:100E2C000A2B0BD97B685B6A43F400327B685A62ED
:100E3C007B68052283F820200123C5E07B681B68B2
:100E4C005B6803F00103002BE5D07B681B681A6814
:100E5C007B681B6822F002021A60FFF797FDF860AE
:100E6C0012E0FFF793FD0246FB68D31A0A2B0BD94D
:100E7C007B685B6A43F400327B685A627B680522AC
:100E8C0083F8202001239FE07B681B685B6803F0DC
:100E9C000203002BE5D17B681B7E012B08D17B68FC
:100EAC001B681A687B681B6842F080021A6007E0B6
:100EBC007B681B681A687B681B6822F080021A60CA
:100ECC007B685B7E012B08D17B681B681A687B688A
:100EDC001B6842F040021A6007E07B681B681A68C6
:100EEC007B681B6822F040021A607B689B7E012B9A
:100EFC0008D17B681B681A687B681B6842F020026B
:100F0C001A6007E07B681B681A687B681B6822F014
:100F1C0020021A607B68DB7E012B08D17B681B6882
:100F2C001A687B681B6822F010021A6007E07B6865
:100F3C001B681A687B681B6842F010021A607B6899
:100F4C001B7F012B08D17B681B681A687B681B68A8
:100F5C0042F008021A6007E07B681B681A687B681D
:100F6C001B6822F008021A607B685B7F012B08D19A
:100F7C007B681B681A687B681B6842F004021A6065
:100F8C0007E07B681B681A687B681B6822F0040208
:100F9C001A607B689A687B68DB681A437B681B69FC
:100FAC001A437B685B6942EA03017B685B685A1EE3
:100FBC007B681B680A43DA617B6800225A627B6893
:100FCC00012283F82020002318461037BD4680BD2F
:100FDC0080B485B000AF78607B6803F00703FB60DA
:100FEC000C4BDB68BB60BA684FF6FF031340BB6069
:100FFC00FB681A02BB68134343F0BF6343F400332E
:10100C00BB60044ABB68D36000BF1437BD4680BCCC
:10101C00704700BF00ED00E080B400AF044BDB680C
:10102C001B0A03F007031846BD4680BC704700BF7F
:10103C0000ED00E080B483B000AF0346FB7197F97C
:10104C000730002B0BDBFB7903F01F02064997F9E5
:10105C0007305B09012000FA02F241F8232000BF9F
:10106C000C37BD4680BC704700E100E080B483B013
:10107C0000AF03463960FB7197F90730002B0ADB90
:10108C003B68DAB20C4997F907301201D2B20B4423
:10109C0083F800230AE03B68DAB20849FB7903F0D5
:1010AC000F03043B1201D2B20B441A7600BF0C376B
:1010BC00BD4680BC704700BF00E100E000ED00E0E1
:1010CC0080B489B000AFF860B9607A60FB6803F057
:1010DC000703FB61FB69C3F10703042B28BF04233F
:1010EC00BB61FB690433062B02D9FB69033B00E0AF
:1010FC0000237B614FF0FF32BB6902FA03F3DA4342
:10110C00BB681A407B699A404FF0FF317B6901FA4A
:10111C0003F3D9437B680B40134318462437BD4671
:10112C0080BC704780B582B000AF78607B68013BB3
:10113C00B3F1807F01D301230FE00A4A7B68013BA6
:10114C0053600F214FF0FF30FFF790FF054B00224B
:10115C009A60044B07221A60002318460837BD46D4
:10116C0080BD00BF10E000E080B582B000AF7860B9
:10117C007868FFF72DFF00BF0837BD4680BD80B5EE
:10118C0086B000AF0346B9607A60FB7300237B61C5
:10119C00FFF742FF78617A68B9687869FFF790FFCA
:1011AC00024697F90F3011461846FFF75FFF00BF54
:1011BC001837BD4680BD80B582B000AF0346FB71C9
:1011CC0097F907301846FFF735FF00BF0837BD46C3
:1011DC0080BD80B582B000AF78607868FFF7A2FF61
:1011EC00034618460837BD4680BD000080B48BB05E
:1011FC0000AF7860396000237B6200233B6269E1B9
:10120C0001227B6A02FA03F3FB613B681B68FA69F3
:10121C001340BB61BA69FB699A4240F058813B6844
:10122C005B689A4A93425ED0984A934275D8984A22
:10123C00934258D0964A93426FD8964A934252D0D2
:10124C00944A934269D8944A93424CD0924A93421E
:10125C0063D8924A934246D0904A93425DD8122B5F
:10126C002AD8122B59D801A252F823F0F3120008F5
:10127C00CD120008DF120008211300082713000804
:10128C00271300082713000827130008271300084A
:10129C00271300082713000827130008271300083A
:1012AC00271300082713000827130008271300082A
:1012BC00D5120008E9120008794A934213D02CE0A9
:1012CC003B68DB683B6229E03B68DB6804333B62CC
:1012DC0024E03B68DB6808333B621FE03B68DB685B
:1012EC000C333B621AE03B689B68002B02D1042351
:1012FC003B6213E03B689B68012B05D108233B62E2
:10130C007B68FA691A6109E008233B627B68FA6919
:10131C005A6103E000233B6200E000BFBB69FF2B76
:10132C0001D87B6801E07B6804337B61BB69FF2BD0
:10133C0002D87B6A9B0002E07B6A083B9B003B6106
:10134C007B691A680F213B6901FA03F3DB431A40EE
:10135C00396A3B6901FA03F31A437B691A603B68EB
:10136C005B6803F08053002B00F0B1804D4B9B6900
:10137C004C4A43F0010393614A4B9B6903F0010310
:10138C00BB60BB68484A7B6A9B08023352F8233027
:10139C00FB607B6A03F003039B000F2202FA03F34A
:1013AC00DB43FA681340FB607B68404A934213D0DE
:1013BC007B683F4A93420DD07B683E4A934207D0EC
:1013CC007B683D4A934201D1032306E0042304E0E9
:1013DC00022302E0012300E000237A6A02F00302F8
:1013EC0092009340FA681343FB602F497B6A9B0879
:1013FC000233FA6841F823203B685B6803F48013DE
:10140C00002B06D02D4B9A682C49BB6913438B607B
:10141C0006E02A4B9A68BB69DB43284913408B6072
:10142C003B685B6803F40013002B06D0234BDA688F
:10143C002249BB691343CB6006E0204BDA68BB69D9
:10144C00DB431E491340CB603B685B6803F40033FD
:10145C00002B06D0194B5A681849BB6913434B60D3
:10146C0006E0164B5A68BB69DB43144913404B60CA
:10147C003B685B6803F48033002B21D00F4B1A6858
:10148C000E49BB6913430B6021E000BF0000321012
:10149C00000031100000221000002110000012107A
:1014AC000000111000100240000001400008014033
:1014BC00000C0140001001400014014000040140E8
:1014CC000B4B1A68BB69DB43094913400B607B6A01
:1014DC0001337B623B681A687B6A22FA03F3002BA8
:1014EC007FF48EAE00BF00BF2C37BD4680BC70476A
:1014FC000004014080B483B000AF78600B467B8061
:10150C0013467B707B78002B03D07A887B681A613A
:10151C0003E07B881A047B681A6100BF0C37BD4658
:10152C0080BC704780B586B000AF78607B68002BBC
:10153C0001D1012372E27B681B6803F00103002BCD
:10154C0000F08780924B5B6803F00C03042B0CD0EB
:10155C008F4B5B6803F00C03082B12D18C4B5B6830
:10156C0003F48033B3F5803F0BD1894B1B6803F434
:10157C000033002B6CD07B685B68002B68D1012397
:10158C004CE27B685B68B3F5803F06D1804B1B68EF
:10159C007F4A43F4803313602EE07B685B68002B3A
:1015AC000CD17B4B1B687A4A23F480331360784B45
:1015BC001B68774A23F4802313601DE07B685B680B
:1015CC00B3F5A02F0CD1724B1B68714A43F48023E6
:1015DC0013606F4B1B686E4A43F4803313600BE04F
:1015EC006B4B1B686A4A23F480331360684B1B688F
:1015FC00674A23F4802313607B685B68002B13D04D
:10160C00FFF7C4F9386108E0FFF7C0F902463B69FF
:10161C00D31A642B01D9032300E25D4B1B6803F43E
:10162C000033002BF0D014E0FFF7B0F9386108E07C
:10163C00FFF7ACF902463B69D31A642B01D903239B
:10164C00ECE1534B1B6803F40033002BF0D100E0AA
:10165C0000BF7B681B6803F00203002B63D04C4B6C
:10166C005B6803F00C03002B0BD0494B5B6803F059
:10167C000C03082B1CD1464B5B6803F48033002B06
:10168C0016D1434B1B6803F00203002B05D07B687B
:10169C001B69012B01D00123C0E13D4B1B6823F0DA
:1016AC00F8027B685B69DB00394913430B603AE055
:1016BC007B681B69002B20D0364B01221A60FFF788
:1016CC0065F9386108E0FFF761F902463B69D31A06
:1016DC00022B01D90323A1E12D4B1B6803F002035C
:1016EC00002BF0D02A4B1B6823F0F8027B685B6957
:1016FC00DB00274913430B6015E0264B00221A60D0
:10170C00FFF744F9386108E0FFF740F902463B69FE
:10171C00D31A022B01D9032380E11D4B1B6803F064
:10172C000203002BF0D17B681B6803F00803002B2D
:10173C003AD07B689B69002B19D0174B01221A6099
:10174C00FFF724F9386108E0FFF720F902463B69FE
:10175C00D31A022B01D9032360E10D4B5B6A03F012
:10176C000203002BF0D0012000F0CEFA1CE00A4B53
:10177C0000221A60FFF70AF938610FE0FFF706F94B
:10178C0002463B69D31A022B08D9032346E100BF5A
:10179C00001002400000424280044242924B5B6ABD
:1017AC0003F00203002BE9D17B681B6803F00403F0
:1017BC00002B00F0A6800023FB758B4BDB6903F03C
:1017CC008053002B0DD1884BDB69874A43F0805343
:1017DC00D361854BDB6903F08053BB60BB6801238D
:1017EC00FB75824B1B6803F48073002B18D17F4B65
:1017FC001B687E4A43F480731360FFF7C7F83861A7
:10180C0008E0FFF7C3F802463B69D31A642B01D9F1
:10181C00032303E1754B1B6803F48073002BF0D09A
:10182C007B68DB68012B06D16F4B1B6A6E4A43F059
:10183C00010313622DE07B68DB68002B0CD16A4B33
:10184C001B6A694A23F001031362674B1B6A664AE1
:10185C0023F0040313621CE07B68DB68052B0CD1BE
:10186C00614B1B6A604A43F0040313625E4B1B6AB4
:10187C005D4A43F0010313620BE05B4B1B6A5A4A4F
:10188C0023F001031362584B1B6A574A23F00403DD
:10189C0013627B68DB68002B15D0FFF777F8386193
:1018AC000AE0FFF773F802463B69D31A41F288321B
:1018BC00934201D90323B1E04B4B1B6A03F00203A3
:1018CC00002BEED014E0FFF761F838610AE0FFF767
:1018DC005DF802463B69D31A41F28832934201D932
:1018EC0003239BE0404B1B6A03F00203002BEED159
:1018FC00FB7D012B05D13C4BDB693B4A23F080532C
:10190C00D3617B68DB69002B00F08780364B5B680A
:10191C0003F00C03082B61D07B68DB69022B46D1EA
:10192C00334B00221A60FFF731F8386108E0FFF7FB
:10193C002DF802463B69D31A022B01D903236DE023
:10194C00294B1B6803F00073002BF0D17B681B6ADA
:10195C00B3F5803F08D1244B5B6823F400327B68DD
:10196C009B68214913434B601F4B5B6823F4741233
:10197C007B68196A7B685B6A0B431B4913434B609A
:10198C001B4B01221A60FFF701F8386108E0FEF7E3
:10199C00FDFF02463B69D31A022B01D903233DE01C
:1019AC00114B1B6803F00073002BF0D035E0104B8B
:1019BC0000221A60FEF7EAFF386108E0FEF7E6FF46
:1019CC0002463B69D31A022B01D9032326E0064BAE
:1019DC001B6803F00073002BF0D11EE07B68DB6901
:1019EC00012B07D1012319E00010024000700040C8
:1019FC00600042420B4B5B68FB60FB6803F4803277
:101A0C007B681B6A9A4206D1FB6803F470127B68F0
:101A1C005B6A9A4201D0012300E000231846183774
:101A2C00BD4680BD0010024080B584B000AF786028
:101A3C0039607B68002B01D10123D0E06A4B1B6815
:101A4C0003F007033A689A4210D9674B1B6823F0DE
:101A5C00070265493B6813430B60634B1B6803F03B
:101A6C0007033A689A4201D00123B8E07B681B68EF
:101A7C0003F00203002B20D07B681B6803F00403E7
:101A8C00002B05D0594B5B68584A43F4E063536014
:101A9C007B681B6803F00803002B05D0534B5B6875
:101AAC00524A43F460535360504B5B6823F0F0028E
:101ABC007B689B684D4913434B607B681B6803F044
:101ACC000103002B40D07B685B68012B07D1474B8F
:101ADC001B6803F40033002B15D101237FE07B68D6
:101AEC005B68022B07D1414B1B6803F00073002B82
:101AFC0009D1012373E03D4B1B6803F00203002B5B
:101B0C0001D101236BE0394B5B6823F003027B6846
:101B1C005B68364913434B60FEF738FFF8600AE008
:101B2C00FEF734FF0246FB68D31A41F28832934227
:101B3C0001D9032353E02D4B5B6803F00C027B6847
:101B4C005B689B009A42EBD1274B1B6803F00703A1
:101B5C003A689A4210D2244B1B6823F007022249A0
:101B6C003B6813430B60204B1B6803F007033A6878
:101B7C009A4201D0012332E07B681B6803F0040316
:101B8C00002B08D0194B5B6823F4E0627B68DB68A0
:101B9C00164913434B607B681B6803F00803002B4A
:101BAC0009D0124B5B6823F460527B681B69DB0025
:101BBC000E4913434B6000F021F802460B4B5B6857
:101BCC001B0903F00F030A49CB5C22FA03F3094A01
:101BDC001360094B1B681846FEF796FE0023184647
:101BEC001037BD4680BD00BF0020024000100240EF
:101BFC00BC2C0008000000200400002080B487B03A
:101C0C0000AF0023FB600023BB6000237B6100233B
:101C1C007B6000233B611E4B5B68FB60FB6803F041
:101C2C000C03042B02D0082B03D027E0194B3B618B
:101C3C0027E0FB689B0C03F00F03174AD35C7B6017
:101C4C00FB6803F48033002B10D0114B5B685B0CEA
:101C5C0003F00103114AD35CBB607B680D4A03FBA4
:101C6C0002F2BB68B2FBF3F37B6104E07B680C4AC5
:101C7C0002FB03F37B617B693B6102E0054B3B613B
:101C8C0000BF3B6918461C37BD4680BC704700BF7F
:101C9C000010024000127A00D42C0008E42C00083A
:101CAC0000093D0080B400AF024B1B681846BD46CE
:101CBC0080BC70470000002080B500AFFFF7F2FF3A
:101CCC000246054B5B681B0A03F007030349CB5C18
:101CDC0022FA03F3184680BD00100240CC2C0008F9
:101CEC0080B500AFFFF7DEFF0246054B5B68DB0AF1
:101CFC0003F007030349CB5C22FA03F3184680BDBB
:101D0C0000100240CC2C000880B485B000AF786085
:101D1C000A4B1B680A4AA2FB03235B0A7A6802FB84
:101D2C0003F3FB6000BFFB685A1EFA60002BF9D16D
:101D3C0000BF00BF1437BD4680BC704700000020B8
:101D4C00D34D621080B586B000AF786000233B6144
:101D5C000023FB607B681B6803F00103002B7DD024
:101D6C000023FB754F4BDB6903F08053002B0DD127
:101D7C004C4BDB694B4A43F08053D361494BDB69D5
:101D8C0003F08053BB60BB680123FB75464B1B689B
:101D9C0003F48073002B18D1434B1B68424A43F465
:101DAC0080731360FEF7F2FD386108E0FEF7EEFD7C
:101DBC0002463B69D31A642B01D903236DE03A4BDD
:101DCC001B6803F48073002BF0D0364B1B6A03F4B2
:101DDC004073FB60FB68002B2ED07B685B6803F4C0
:101DEC004073FA689A4227D02E4B1B6A23F4407337
:101DFC00FB602E4B01221A602C4B00221A60294AE0
:101E0C00FB681362FB6803F00103002B14D0FEF790
:101E1C00BDFD38610AE0FEF7B9FD02463B69D31AF5
:101E2C0041F28832934201D9032336E01D4B1B6AE1
:101E3C0003F00203002BEED01A4B1B6A23F4407202
:101E4C007B685B68174913430B62FB7D012B05D143
:101E5C00144BDB69134A23F08053D3617B681B68F6
:101E6C0003F00203002B08D00E4B5B6823F44042B6
:101E7C007B689B680B4913434B607B681B6803F0C2
:101E8C001003002B08D0074B5B6823F480027B689F
:101E9C00DB68044913434B60002318461837BD46D2
:101EAC0080BD00BF00100240007000404004424260
:101EBC0080B582B000AF78607B68002B01D1012324
:101ECC0041E07B6893F83D30DBB2002B06D17B6898
:101EDC00002283F83C207868FEF752FC7B680222D3
:101EEC0083F83D207B681A687B68043319461046DA
:101EFC0000F0DEFA7B68012283F846207B68012221
:101F0C0083F83E207B68012283F83F207B68012206
:101F1C0083F840207B68012283F841207B680122F2
:101F2C0083F842207B68012283F843207B680122DE
:101F3C0083F844207B68012283F845207B680122CA
:101F4C0083F83D20002318460837BD4680BD80B578
:101F5C0082B000AF78607B68002B01D1012341E097
:101F6C007B6893F83D30DBB2002B06D17B680022F6
:101F7C0083F83C20786800F039F87B68022283F8FB
:101F8C003D207B681A687B6804331946104600F0C4
:101F9C008FFA7B68012283F846207B68012283F844
:101FAC003E207B68012283F83F207B68012283F866
:101FBC0040207B68012283F841207B68012283F852
:101FCC0042207B68012283F843207B68012283F83E
:101FDC0044207B68012283F845207B68012283F82A
:101FEC003D20002318460837BD4680BD80B483B021
:101FFC0000AF786000BF0C37BD4680BC704780B521
:10200C0082B000AF78607B681B681B6903F0020329
:10201C00022B22D17B681B68DB6803F00203022BC6
:10202C001BD17B681B686FF002021A617B6801226E
:10203C001A777B681B689B6903F00303002B03D0A2
:10204C00786800F01AFA05E0786800F00DFA786804
:10205C0000F01CFA7B6800221A777B681B681B69EE
:10206C0003F00403042B22D17B681B68DB6803F0AC
:10207C000403042B1BD17B681B686FF004021A61EC
:10208C007B6802221A777B681B689B6903F4407398
:10209C00002B03D0786800F0F0F905E0786800F0C8
:1020AC00E3F9786800F0F2F97B6800221A777B6814
:1020BC001B681B6903F00803082B22D17B681B6883
:1020CC00DB6803F00803082B1BD17B681B686FF0DF
:1020DC0008021A617B6804221A777B681B68DB692B
:1020EC0003F00303002B03D0786800F0C6F905E079
:1020FC00786800F0B9F9786800F0C8F97B680022BC
:10210C001A777B681B681B6903F01003102B22D114
:10211C007B681B68DB6803F01003102B1BD17B68FA
:10212C001B686FF010021A617B6808221A777B68B3
:10213C001B68DB6903F44073002B03D0786800F054
:10214C009CF905E0786800F08FF9786800F09EF94A
:10215C007B6800221A777B681B681B6903F00103FC
:10216C00012B0ED17B681B68DB6803F00103012B8C
:10217C0007D17B681B686FF001021A61786800F068
:10218C006AF97B681B681B6903F08003802B0ED1F6
:10219C007B681B68DB6803F08003802B07D17B68AE
:1021AC001B686FF080021A61786800F068FC7B682D
:1021BC001B681B6903F04003402B0ED17B681B6826
:1021CC00DB6803F04003402B07D17B681B686FF082
:1021DC0040021A61786800F062F97B681B681B6921
:1021EC0003F02003202B0ED17B681B68DB6803F007
:1021FC002003202B07D17B681B686FF020021A612B
:10220C00786800F033FC00BF0837BD4680BD000085
:10221C0080B586B000AFF860B9607A600023FB75BA
:10222C00FB6893F83C30012B01D1022348E0FB689A
:10223C00012283F83C207B680C2B39D801A252F880
:10224C0023F000BF85220008BD220008BD22000833
:10225C00BD22000893220008BD220008BD22000800
:10226C00BD220008A1220008BD220008BD220008E2
:10227C00BD220008AF220008FB681B68B96818462D
:10228C0000F078F917E0FB681B68B968184600F095
:10229C00D7F910E0FB681B68B968184600F03AFAE9
:1022AC0009E0FB681B68B968184600F09DFA02E06B
:1022BC000123FB7500BFFB68002283F83C20FB7DEB
:1022CC0018461837BD4680BD80B584B000AF786025
:1022DC0039600023FB737B6893F83C30012B01D1F0
:1022EC000223B4E07B68012283F83C207B68022245
:1022FC0083F83D207B681B689B68BB60BB6823F040
:10230C007703BB60BB6823F47F43BB607B681B68AF
:10231C00BA689A603B681B68B3F5005F3ED0B3F5B2
:10232C00005F00F28780B3F5805F00F08680B3F524
:10233C00805F7FD8702B1AD0702B7BD8602B50D03D
:10234C00602B77D8502B3CD0502B73D8402B58D0C7
:10235C00402B6FD8302B64D0302B6BD8202B60D017
:10236C00202B67D8002B5CD0102B5AD062E07B68F6
:10237C0018683B6899683B685A683B68DB6800F0F2
:10238C00F8FA7B681B689B68BB60BB6843F07703FB
:10239C00BB607B681B68BA689A604FE07B68186802
:1023AC003B6899683B685A683B68DB6800F0E1FA67
:1023BC007B681B689A687B681B6842F480429A6051
:1023CC003CE07B6818683B6859683B68DB681A46D8
:1023DC0000F058FA7B681B685021184600F0AFFAE1
:1023EC002CE07B6818683B6859683B68DB681A46C8
:1023FC0000F076FA7B681B686021184600F09FFAA3
:10240C001CE07B6818683B6859683B68DB681A46B7
:10241C0000F038FA7B681B684021184600F08FFAF0
:10242C000CE07B681A683B681B681946104600F084
:10243C0086FA03E00123FB7300E000BF7B680122F6
:10244C0083F83D207B68002283F83C20FB7B1846F8
:10245C001037BD4680BD80B483B000AF786000BF3C
:10246C000C37BD4680BC704780B483B000AF786039
:10247C0000BF0C37BD4680BC704780B483B000AF42
:10248C00786000BF0C37BD4680BC704780B483B009
:10249C0000AF786000BF0C37BD4680BC704780B47D
:1024AC0083B000AF786000BF0C37BD4680BC70476E
:1024BC0080B485B000AF786039607B681B68FB60C6
:1024CC007B68294A93420BD07B68B3F1804F07D0CD
:1024DC007B68264A934203D07B68254A934208D1F5
:1024EC00FB6823F07003FB603B685B68FA6813437E
:1024FC00FB607B681C4A93420BD07B68B3F1804F26
:10250C0007D07B68194A934203D07B68184A9342E0
:10251C0008D1FB6823F44073FB603B68DB68FA6806
:10252C001343FB60FB6823F080023B685B69134339
:10253C00FB607B68FA681A603B689A687B68DA62B1
:10254C003B681A687B689A627B68074A934203D19E
:10255C003B681A697B681A637B6801225A6100BF69
:10256C001437BD4680BC7047002C0140000400406D
:10257C000008004080B487B000AF786039607B6899
:10258C001B6A7B617B681B6A23F001027B681A6201
:10259C007B685B683B617B689B69FB60FB6823F035
:1025AC007003FB60FB6823F00303FB603B681B6854
:1025BC00FA681343FB607B6923F002037B613B6881
:1025CC009B687A6913437B617B681C4A93420CD1EC
:1025DC007B6923F008037B613B68DB687A691343F2
:1025EC007B617B6923F004037B617B68134A934214
:1025FC0011D13B6923F480733B613B6923F4007375
:10260C003B613B685B693A6913433B613B689B697F
:10261C003A6913433B617B683A695A607B68FA6894
:10262C009A613B685A687B685A637B687A691A625C
:10263C0000BF1C37BD4680BC704700BF002C01405A
:10264C0080B487B000AF786039607B681B6A7B61AF
:10265C007B681B6A23F010027B681A627B685B68DC
:10266C003B617B689B69FB60FB6823F4E043FB6088
:10267C00FB6823F44073FB603B681B681B02FA6821
:10268C001343FB607B6923F020037B613B689B68F1
:10269C001B017A6913437B617B681D4A93420DD100
:1026AC007B6923F080037B613B68DB681B017A69E3
:1026BC0013437B617B6923F040037B617B68144A85
:1026CC00934213D13B6923F480633B613B6923F450
:1026DC0000633B613B685B699B003A6913433B6158
:1026EC003B689B699B003A6913433B617B683A6981
:1026FC005A607B68FA689A613B685A687B689A638F
:10270C007B687A691A6200BF1C37BD4680BC704773
:10271C00002C014080B487B000AF786039607B68D2
:10272C001B6A7B617B681B6A23F480727B681A626C
:10273C007B685B683B617B68DB69FB60FB6823F053
:10274C007003FB60FB6823F00303FB603B681B68B2
:10275C00FA681343FB607B6923F400737B613B686D
:10276C009B681B027A6913437B617B681D4A934209
:10277C000DD17B6923F400637B613B68DB681B0232
:10278C007A6913437B617B6923F480637B617B688B
:10279C00144A934213D13B6923F480533B613B6948
:1027AC0023F400533B613B685B691B013A6913439B
:1027BC003B613B689B691B013A6913433B617B6836
:1027CC003A695A607B68FA68DA613B685A687B68D8
:1027DC00DA637B687A691A6200BF1C37BD4680BC1D
:1027EC00704700BF002C014080B487B000AF786008
:1027FC0039607B681B6A3B617B681B6A23F48052DF
:10280C007B681A627B685B687B617B68DB69FB6059
:10281C00FB6823F4E043FB60FB6823F44073FB602C
:10282C003B681B681B02FA681343FB603B6923F48B
:10283C0000533B613B689B681B033A6913433B6144
:10284C007B680F4A934209D17B6923F480437B61F7
:10285C003B685B699B017A6913437B617B687A698E
:10286C005A607B68FA68DA613B685A687B681A645C
:10287C007B683A691A6200BF1C37BD4680BC704742
:10288C00002C014080B487B000AFF860B9607A606A
:10289C00FB681B6A7B61FB681B6A23F00102FB6807
:1028AC001A62FB689B693B613B6923F0F0033B6157
:1028BC007B681B013A6913433B617B6923F00A0374
:1028CC007B617A69BB6813437B61FB683A699A61E7
:1028DC00FB687A691A6200BF1C37BD4680BC704722
:1028EC0080B487B000AFF860B9607A60FB681B6A8F
:1028FC007B61FB681B6A23F01002FB681A62FB68A1
:10290C009B693B613B6923F470433B617B681B0310
:10291C003A6913433B617B6923F0A0037B61BB687D
:10292C001B017A6913437B61FB683A699A61FB6806
:10293C007A691A6200BF1C37BD4680BC704780B4F0
:10294C0085B000AF786039607B689B68FB60FB6882
:10295C0023F07003FB603A68FB68134343F00703F2
:10296C00FB607B68FA689A6000BF1437BD4680BC78
:10297C00704780B487B000AFF860B9607A603B6094
:10298C00FB689B687B617B6923F47F437B613B68BD
:10299C001A027B681A43BB6813437A6913437B6141
:1029AC00FB687A699A6000BF1C37BD4680BC7047D3
:1029BC0080B485B000AF786039607B6893F83C30A8
:1029CC00012B01D1022346E07B68012283F83C20D5
:1029DC007B68022283F83D207B681B685B68FB6088
:1029EC007B681B689B68BB60FB6823F07003FB6013
:1029FC003B681B68FA681343FB607B681B68FA68CA
:102A0C005A607B681B68164A93420ED07B681B6821
:102A1C00B3F1804F09D07B681B68124A934204D0F3
:102A2C007B681B68104A93420CD1BB6823F080036F
:102A3C00BB603B685B68BA681343BB607B681B6810
:102A4C00BA689A607B68012283F83D207B6800227B
:102A5C0083F83C20002318461437BD4680BC7047D1
:102A6C00002C0140000400400008004080B483B0FA
:102A7C0000AF786000BF0C37BD4680BC704780B497
:102A8C0083B000AF786000BF0C37BD4680BC704788
:102A9C0080B582B000AF78607B68002B01D1012338
:102AAC0042E07B6893F84130DBB2002B06D17B68A7
:102ABC00002283F840207868FDF788FE7B6824228A
:102ACC0083F841207B681B68DA687B681B6822F4FA
:102ADC000052DA60786800F02BF87B681B681A6982
:102AEC007B681B6822F490421A617B681B685A69E8
:102AFC007B681B6822F02A025A617B681B68DA68C3
:102B0C007B681B6842F40052DA607B6800225A64CE
:102B1C007B68202283F841207B68202283F84220A6
:102B2C007B6800225A63002318460837BD4680BDD7
:102B3C0080B584B000AF78607B681B681B6923F498
:102B4C0040517B68DA687B681B680A431A617B68B2
:102B5C009A687B681B691A437B685B691343BB608B
:102B6C007B681B68DB6823F4B05323F00C037A6892
:102B7C001268B9680B43D3607B681B685B6923F4EC
:102B8C0040717B689A697B681B680A435A617B6851
:102B9C001B682C4A934203D1FFF7A2F8F86002E0BD
:102BAC00FFF78AF8F860FA6813469B0013449A0002
:102BBC001A447B685B689B00B2FBF3F3224AA2FBCE
:102BCC0003235B091901FA6813469B0013449A000E
:102BDC001A447B685B689B00B2FBF3F21A4BA3FBB5
:102BEC0002035B09642000FB03F3D31A1B0132338D
:102BFC00154AA2FB03235B0903F0F0031944FA689E
:102C0C0013469B0013449A001A447B685B689B0034
:102C1C00B2FBF3F20C4BA3FB02035B09642000FB39
:102C2C0003F3D31A1B013233074AA2FB03235B09BC
:102C3C0003F00F027B681B680A449A6000BF1037D0
:102C4C00BD4680BD003801401F85EB51FDF740FEAD
:102C5C000B480C490C4A002302E0D458C4500433EE
:102C6C00C4188C42F9D3094A094C002301E01360C3
:102C7C000432A242FBD3FDF791FAFDF7B3FA704789
:102C8C00000000200C000020F02C00080C0000209C
:102C9C0014010020FEE70000F8B500BFF8BC08BC2A
:102CAC009E467047F8B500BFF8BC08BC9E467047FE
:102CBC0000000000000000000102030406070809E0
:102CCC0000000000010203040203040506070809C2
:0C2CDC000A0B0C0D0E0F1010010200007E
:042CE800750100086A
:042CEC004D0100088E
:0C2CF0000024F4001000000001000000AF
:0400000508002C596A
:00000001FF
